:020000040800F2
:10000000000001207D0800088D0500089505000806
:100010009D050008A5050008AD05000800000000CA
:10002000000000000000000000000000B50500080E
:10003000C105000800000000CD050008D905000832
:10004000C5080008C5080008C5080008C50800085C
:10005000C5080008C5080008C5080008C50800084C
:10006000C5080008C5080008C5080008C50800083C
:10007000C5080008C5080008C5080008C50800082C
:10008000E5050008F9050008C5080008C5080008CE
:10009000C5080008C5080008C5080008C50800080C
:1000A000C5080008C5080008C5080008C5080008FC
:1000B000C5080008C5080008C5080008C5080008EC
:1000C000C5080008C5080008C5080008C5080008DC
:1000D000C5080008C50800080D060008C508000886
:1000E000C5080008C5080008C5080008C5080008BC
:1000F000C5080008C5080008C5080008C5080008AC
:10010000C5080008C5080008C5080008C50800089B
:10011000C5080008C5080008C5080008C50800088B
:10012000C5080008C5080008C5080008C50800087B
:1001300000000000000000000000000000000000BF
:1001400000000000000000000000000000000000AF
:10015000000000000000000000000000000000009F
:10016000000000000000000000000000000000008F
:10017000000000000000000000000000000000007F
:10018000000000000000000000000000000000006F
:10019000000000000000000000000000000000005F
:1001A000000000000000000000000000000000004F
:1001B000000000000000000000000000000000003F
:1001C000000000000000000000000000000000002F
:1001D000000000000000000000000000000000001F
:0401E0005FF8E0F1F3
:1001E40010B5054C237833B9044B13B10448AFF36D
:1001F40000800123237010BDA40000200000000033
:100204008839000808B5034B1BB103490348AFF311
:10021400008008BD00000000A80000208839000804
:1002240080B582B000AF104B5B690F4A43F0010305
:1002340053610D4B5B6903F001037B607B68002213
:100244000021102000F09BFC102000F0B4FC0022E0
:100254000021112000F093FC112000F0ACFC00BF41
:100264000837BD4680BD00BF0010024080B485B091
:1002740000AF144B9B69134A43F010039361114B75
:100284009B6903F01003FB60FB680E4B9B690D4AEE
:1002940043F0040393610B4B9B6903F00403BB60BD
:1002A400BB68084B9B69074A43F008039361054BFD
:1002B4009B6903F008037B607B6800BF1437BD466D
:1002C40080BC70470010024080B500AF124B134A47
:1002D4001A60114B124A5A600F4B00229A600E4B5F
:1002E4000022DA600C4B4FF480421A610A4B002260
:1002F4005A61094B00229A61074B0022DA61064BCE
:1003040000221A62044801F0BFF90346002B01D011
:1003140000F001F900BF80BDC0000020005400407F
:10032400A086010080B588B000AF786007F11003A3
:1003340000221A605A609A60DA607B681B68154A6A
:10034400934223D1144B9B69134A43F008039361EE
:10035400114B9B6903F00803FB60FB68C0233B61FE
:1003640012237B610323FB6107F1100319460B4839
:1003740000F0F6FF084BDB69074A43F40013D3612E
:10038400054BDB6903F40013BB60BB6800BF203777
:10039400BD4680BD0054004000100240000C0140E6
:1003A40080B582B002AF00F08DFA00F073F8FFF769
:1003B4005DFFFFF735FF00F037F900F089F9FFF72B
:1003C40083FF02F0C3FF03F00FF80123009310230F
:1003D4002D4A0021002003F01FF9002300930C2371
:1003E4002A4A0221002003F017F9012300220421E4
:1003F400002003F0CDF9012301220421102003F091
:10040400C7F9012302220421202003F0C1F90023AB
:1004140000220621002003F0BBF90023012206215B
:10042400102003F0B5F9002302220621202003F056
:10043400AFF9002301931023009301230622042122
:10044400302003F033F9012301930C23009302239A
:100454004D220721302003F029F9002301930C4B8E
:10046400009304237A2200215A2003F003FA012383
:100474000193074B009308237A2204215A2003F0A6
:10048400F9F900BFFDE700BFA0390008AC39000846
:100494002400002080B590B000AF07F11803282293
:1004A4000021184603F042FA3B1D00221A605A60EC
:1004B4009A60DA601A610223BB610123BB621023D4
:1004C400FB6202237B630023BB634FF42013FB63B3
:1004D40007F11803184601F083FD0346002B01D0F1
:1004E40000F019F80F237B600223BB600023FB603C
:1004F4004FF480633B6100237B613B1D012118465F
:1005040001F0F0FF0346002B01D000F004F800BF17
:100514004037BD4680BD80B400AF72B600BF00BF97
:10052400FDE7000080B485B000AF154B9B69144A09
:1005340043F001039361124B9B6903F00103BB6019
:10054400BB680F4BDB690E4A43F08053D3610C4BFD
:10055400DB6903F080537B607B680A4B5B68FB605C
:10056400FB6823F0E063FB60FB6843F08063FB609F
:10057400044AFB68536000BF1437BD4680BC704713
:10058400001002400000014080B400AF00BFFDE74E
:1005940080B400AF00BFFDE780B400AF00BFFDE74B
:1005A40080B400AF00BFFDE780B400AF00BFFDE73B
:1005B40080B400AF00BFBD4680BC704780B400AFBC
:1005C40000BFBD4680BC704780B400AF00BFBD46CD
:1005D40080BC704780B500AF00F0BAF900BF80BDA1
:1005E40080B500AF024800F07FFC00BF80BD00BFB3
:1005F400A001002080B500AF024800F075FC00BFE8
:1006040080BD00BFE401002080B500AF024802F0C5
:100614006FFA00BF80BD00BF5C01002080B400AF52
:1006240000BFBD4680BC704780B582B000AF3B467A
:1006340000221A605A60154B154A1A60134B302277
:100644005A60124B00229A60104B4FF47A72DA60AF
:100654000E4B80229A610D4802F0D2F80346002B1B
:1006640001D0FFF758FF00233B6000237B603B462B
:100674001946064802F08EF90346002B01D0FFF715
:100684004AFF00BF0837BD4680BD00BF14010020EB
:100694000010004080B485B000AF78607B681B68B0
:1006A400094A93420BD1094BDB69084A43F0100312
:1006B400D361064BDB6903F01003FB60FB6800BFEA
:1006C4001437BD4680BC7047001000400010024043
:1006D40080B500AF124B134A1A60114B4FF4E1324C
:1006E4005A600F4B00229A600D4B0022DA600C4BCB
:1006F40000221A610A4B0C225A61094B00229A61AA
:10070400074B0022DA61064B00221A62044802F009
:10071400ADF90346002B01D0FFF7FDFE00BF80BDFD
:100724005C0100200044004080B588B000AF7860D0
:1007340007F1100300221A605A609A60DA607B683D
:100744001B68464A934240F08480454BDB69444A27
:1007540043F40033D361424BDB6903F40033FB60A1
:10076400FB683F4B9B693E4A43F0040393613C4B57
:100774009B6903F00403BB60BB6814233B61022341
:100784007B610323FB6107F110031946354800F030
:10079400E7FD08233B6100237B610023BB6107F174
:1007A400100319462F4800F0DBFD2F4B2F4A1A6027
:1007B4002D4B00225A602C4B00229A602A4B802237
:1007C400DA60294B00221A61274B00225A61264B1A
:1007D40000229A61244B0022DA61234800F006FAD1
:1007E4000346002B01D0FFF796FE7B681E4A9A63EE
:1007F4001D4A7B6853621E4B1E4A1A601C4B102212
:100804005A601B4B00229A60194B8022DA60184B05
:1008140000221A61164B00225A61154B00229A617C
:10082400134B0022DA61124800F0E0F90346002B72
:1008340001D0FFF770FE7B680D4A5A630C4A7B684F
:10084400536200220021262000F099F9262000F0AE
:10085400B2F900BF2037BD4680BD00BF0044004050
:100864000010024000080140A00100206C0002407A
:10087400E401002080000240FFF7D0FE0B480C4941
:100884000C4A002302E0D458C4500433C4188C42E8
:10089400F9D3094A094C002301E013600432A2424F
:1008A400FBD303F04BF8FFF77BFD704700000020FB
:1008B400A400002058420008A40000202C020020BC
:1008C400FEE7000080B500AF084B1B68074A43F001
:1008D40010031360032000F047F90F2000F008F81C
:1008E400FFF720FE0023184680BD00BF0020024011
:1008F40080B582B000AF7860124B1A68124B1B7837
:1009040019464FF47A73B3FBF1F3B2FBF3F31846D1
:1009140000F05FF90346002B01D001230EE07B6851
:100924000F2B0AD8002279684FF0FF3000F027F926
:10093400064A7B681360002300E001231846083749
:10094400BD4680BD000000200800002004000020F7
:1009540080B400AF054B1B781A46054B1B68134443
:10096400034A136000BFBD4680BC704708000020E6
:100974002802002080B400AF024B1B681846BD4615
:1009840080BC70472802002080B584B000AF786036
:10099400FFF7F0FFB8607B68FB60FB68B3F1FF3FD3
:1009A40005D00A4B1B781A46FB681344FB6000BF52
:1009B400FFF7E0FF0246BB68D31AFA689A42F7D8F9
:1009C40000BF00BF1037BD4680BD00BF0800002037
:1009D40080B485B000AF78607B6803F00703FB60E8
:1009E4000C4BDB68BB60BA684FF6FF031340BB6077
:1009F400FB681A02BB68134343F0BF6343F400333C
:100A0400BB60044ABB68D36000BF1437BD4680BCDA
:100A1400704700BF00ED00E080B400AF044BDB681A
:100A24001B0A03F007031846BD4680BC704700BF8D
:100A340000ED00E080B483B000AF0346FB7197F98A
:100A44000730002B0BDBFB7903F01F02064997F9F3
:100A540007305B09012000FA02F241F8232000BFAD
:100A64000C37BD4680BC704700E100E080B483B021
:100A740000AF03463960FB7197F90730002B0ADB9E
:100A84003B68DAB20C4997F907301201D2B20B4431
:100A940083F800230AE03B68DAB20849FB7903F0E3
:100AA4000F03043B1201D2B20B441A7600BF0C3779
:100AB400BD4680BC704700BF00E100E000ED00E0EF
:100AC40080B489B000AFF860B9607A60FB6803F065
:100AD4000703FB61FB69C3F10703042B28BF04234D
:100AE400BB61FB690433062B02D9FB69033B00E0BD
:100AF40000237B614FF0FF32BB6902FA03F3DA4350
:100B0400BB681A407B699A404FF0FF317B6901FA58
:100B140003F3D9437B680B40134318462437BD467F
:100B240080BC704780B582B000AF78607B68013BC1
:100B3400B3F1807F01D301230FE00A4A7B68013BB4
:100B440053600F214FF0FF30FFF790FF054B002259
:100B54009A60044B07221A60002318460837BD46E2
:100B640080BD00BF10E000E080B582B000AF7860C7
:100B74007868FFF72DFF00BF0837BD4680BD80B5FC
:100B840086B000AF0346B9607A60FB7300237B61D3
:100B9400FFF742FF78617A68B9687869FFF790FFD8
:100BA400024697F90F3011461846FFF75FFF00BF62
:100BB4001837BD4680BD80B582B000AF0346FB71D7
:100BC40097F907301846FFF735FF00BF0837BD46D1
:100BD40080BD80B582B000AF78607868FFF7A2FF6F
:100BE400034618460837BD4680BD000080B485B072
:100BF40000AF78600023FB607B68002B01D10123E8
:100C040059E07B681B681A462D4B9A420FD87B68C3
:100C14001B681A462B4B13442B4AA2FB03231B09C4
:100C24009A007B681A647B68284ADA630EE07B6862
:100C34001B681A46264B1344234AA2FB03231B09B1
:100C44009A007B681A647B68224ADA637B68022212
:100C540083F821207B681B681B68FB60FB6823F416
:100C64007F5323F03003FB607B685A687B689B6882
:100C74001A437B68DB681A437B681B691A437B68E9
:100C84005B691A437B689B691A437B68DB6913437E
:100C9400FA681343FB607B681B68FA681A607B6818
:100CA40000229A637B68012283F821207B6800225A
:100CB40083F82020002318461437BD4680BC7047B3
:100CC40007040240F8FFFDBFCDCCCCCC00000240AD
:100CD400F8FBFDBF0004024080B584B000AF78602B
:100CE4000023FB737B6893F82130DBB2022B05D021
:100CF4007B6804229A630123FB73D6E07B681B683C
:100D04001A687B681B6822F00E021A607B681B68F5
:100D14001A687B681B6822F001021A607B681B68F2
:100D24001A46644B9A4258D97B681B68624A9342BC
:100D34004FD07B681B68614A934248D07B681B682C
:100D44005F4A934240D07B681B685E4A934238D026
:100D54007B681B685C4A934230D07B681B685B4AA3
:100D6400934228D07B681B68524A934220D07B6808
:100D74001B68574A934219D07B681B68554A9342B3
:100D840012D07B681B68544A93420AD07B681B6864
:100D9400524A934202D14FF480531BE04FF4803304
:100DA40018E04FF4807315E0102313E0012311E0E1
:100DB4004FF080730EE04FF480130BE04FF4803358
:100DC40008E04FF4805305E04FF4807302E01023F1
:100DD40000E00123424A536057E07B681B68364AAF
:100DE40093424FD07B681B68344A934248D07B6857
:100DF4001B68334A934240D07B681B68314A934254
:100E040038D07B681B68304A934230D07B681B68BB
:100E14002E4A934228D07B681B68264A934220D0EE
:100E24007B681B682A4A934219D07B681B68294A4D
:100E3400934212D07B681B68274A93420AD07B688E
:100E44001B68264A934202D14FF480531BE04FF4AF
:100E5400803318E04FF4807315E0102313E001236E
:100E640011E04FF080730EE04FF480130BE04FF469
:100E7400803308E04FF4805305E04FF4807302E0C0
:100E8400102300E00123174A53607B68012283F892
:100E940021207B68002283F820207B685B6B002B79
:100EA40003D07B685B6B78689847FB7B18461037E8
:100EB400BD4680BD80000240080002401C00024084
:100EC4003000024044000240580002406C000240DE
:100ED400080402401C04024030040240440402405E
:100EE400000402400000024080B584B000AF786086
:100EF4007B68DB6B1B68FB607B681B681B68BB60E3
:100F04007B681B6C04229A40FB681340002B00F0A2
:100F1400F180BB6803F00403002B00F0EB807B68D6
:100F24001B681B6803F02003002B07D17B681B6838
:100F34001A687B681B6822F004021A607B681B68CD
:100F44001A465F4B9A4258D97B681B685D4A9342A4
:100F54004FD07B681B685C4A934248D07B681B680F
:100F64005A4A934240D07B681B68594A934238D00E
:100F74007B681B68574A934230D07B681B68564A8B
:100F8400934228D07B681B684D4A934220D07B68EB
:100F94001B68524A934219D07B681B68504A93429B
:100FA40012D07B681B684F4A93420AD07B681B6847
:100FB4004D4A934202D14FF480431BE04FF4802307
:100FC40018E04FF4806315E0402313E0042311E09C
:100FD4004FF080630EE04FF480030BE04FF4802366
:100FE40008E04FF4804305E04FF4806302E04023BF
:100FF40000E004233D4A536057E07B681B68314A94
:1010040093424FD07B681B682F4A934248D07B6839
:101014001B682E4A934240D07B681B682C4A93423B
:1010240038D07B681B682B4A934230D07B681B689E
:10103400294A934228D07B681B68214A934220D0D6
:101044007B681B68254A934219D07B681B68244A35
:10105400934212D07B681B68224A93420AD07B6871
:101064001B68214A934202D14FF480431BE04FF4A2
:10107400802318E04FF4806315E0402313E0042339
:1010840011E04FF080630EE04FF480030BE04FF467
:10109400802308E04FF4804305E04FF4806302E0CE
:1010A400402300E00423124A53607B68DB6A002B70
:1010B40000F036817B68DB6A7868984730E100BFCE
:1010C40080000240080002401C0002403000024040
:1010D40044000240580002406C00024008040240F0
:1010E4001C04024030040240440402400004024054
:1010F400000002407B681B6C02229A40FB6813408C
:10110400002B00F0DD80BB6803F00203002B00F02D
:10111400D7807B681B681B6803F02003002B0BD16E
:101124007B681B681A687B681B6822F00A021A60D5
:101134007B68012283F821207B681B681A467B4B5D
:101144009A4258D97B681B68794A93424FD07B688E
:101154001B68784A934248D07B681B68764A93425E
:1011640040D07B681B68754A934238D07B681B6803
:10117400734A934230D07B681B68724A934228D0EA
:101184007B681B68694A934220D07B681B686E4A5F
:10119400934219D07B681B686C4A934212D07B68D7
:1011A4001B686B4A93420AD07B681B68694A934266
:1011B40002D14FF400531BE04FF4003318E04FF416
:1011C400007315E0202313E0022311E04FF00073B5
:1011D4000EE04FF400130BE04FF4003308E04FF43B
:1011E400005305E04FF4007302E0202300E00223E3
:1011F400594A536057E07B681B684D4A93424FD06D
:101204007B681B684B4A934248D07B681B684A4AF8
:10121400934240D07B681B68484A934238D07B682D
:101224001B68474A934230D07B681B68454A934207
:1012340028D07B681B683D4A934220D07B681B689A
:10124400414A934219D07B681B68404A934212D0AA
:101254007B681B683E4A93420AD07B681B683D4A00
:10126400934202D14FF400531BE04FF4003318E0D3
:101274004FF4007315E0202313E0022311E04FF034
:1012840000730EE04FF400130BE04FF4003308E05A
:101294004FF4005305E04FF4007302E0202300E014
:1012A40002232E4A53607B68002283F820207B6847
:1012B4009B6A002B34D07B689B6A786898472FE040
:1012C4007B681B6C08229A40FB681340002B28D0D3
:1012D400BB6803F00803002B23D07B681B681A68E3
:1012E4007B681B6822F00E021A607B681A6C7B68AC
:1012F400DB6B012101FA02F25A607B6801229A63D6
:101304007B68012283F821207B68002283F8202057
:101314007B681B6B002B04D07B681B6B7868984739
:1013240000BF00BF1037BD4680BD00BF8000024033
:10133400080002401C000240300002404400024009
:10134400580002406C000240080402401C040240A1
:101354003004024044040240000402400000024001
:1013640080B48BB000AF7860396000237B620023C7
:101374003B6279E101227B6A02FA03F3FB613B6879
:101384001B68FA691340BB61BA69FB699A4240F071
:1013940068813B685B68964A93425ED0944A934264
:1013A40075D8944A934258D0924A93426FD8924A3D
:1013B400934252D0904A934269D8904A93424CD077
:1013C4008E4A934263D88E4A934246D08C4A9342C3
:1013D4005DD8122B2AD8122B59D801A252F823F027
:1013E4005F140008391400084B1400088D14000819
:1013F400931400089314000893140008931400082D
:10140400931400089314000893140008931400081C
:10141400931400089314000893140008931400080C
:10142400931400084114000855140008754A9342A7
:1014340013D02CE03B68DB683B6229E03B68DB6847
:1014440004333B6224E03B68DB6808333B621FE003
:101454003B68DB680C333B621AE03B689B68002BFB
:1014640002D104233B6213E03B689B68012B05D146
:1014740008233B627B68FA691A6109E008233B622E
:101484007B68FA695A6103E000233B6200E000BF15
:10149400BB69FF2B01D87B6801E07B6804337B6167
:1014A400BB69FF2B02D87B6A9B0002E07B6A083B86
:1014B4009B003B617B691A680F213B6901FA03F3C6
:1014C400DB431A40396A3B6901FA03F31A437B6927
:1014D4001A603B685B6803F08053002B00F0C18006
:1014E400494B9B69484A43F001039361464B9B690E
:1014F40003F00103BB60BB68444A7B6A9B08023368
:1015040052F82330FB607B6A03F003039B000F2235
:1015140002FA03F3DB43FA681340FB607B683C4A3E
:1015240093421FD07B683B4A934219D07B683A4A66
:10153400934213D07B68394A93420DD07B68384A72
:10154400934207D07B68374A934201D105230AE0CE
:10155400062308E0042306E0032304E0022302E058
:10156400012300E000237A6A02F003029200934010
:10157400FA681343FB6025497B6A9B080233FA68C7
:1015840041F823203B685B6803F48013002B06D0EA
:10159400254B9A682449BB6913438B6006E0224BB0
:1015A4009A68BB69DB43204913408B603B685B68E6
:1015B40003F40013002B06D01B4BDA681A49BB69ED
:1015C4001343CB6006E0184BDA68BB69DB4316496A
:1015D4001340CB603B685B6803F40033002B25D0D9
:1015E400114B5A681049BB6913434B6025E000BF97
:1015F4000000321000003110000022100000211001
:101604000000121000001110001002400000014000
:1016140000080140000C014000100140001401408A
:1016240000180140001C014000040140154B5A6899
:10163400BB69DB43134913404B603B685B6803F4AD
:101644008033002B06D00F4B1A680E49BB69134335
:101654000B6006E00B4B1A68BB69DB430949134076
:101664000B607B6A01337B623B681A687B6A22FAEF
:1016740003F3002B7FF47EAE00BF00BF2C37BD46C2
:1016840080BC70470004014080B584B000AF78602E
:101694007B68002B01D101232BE17B6893F83D305B
:1016A400DBB2002B06D17B68002283F83C207868EB
:1016B400FEF738FE7B68242283F83D207B681B6894
:1016C4001A687B681B6822F001021A607B681B6839
:1016D4001A687B681B6842F400421A607B681B68C6
:1016E4001A687B681B6822F400421A6001F042F811
:1016F400F8607B685B68814A934207D8FB68804A3C
:10170400934294BF01230023DBB206E0FB687D4AC9
:10171400934294BF01230023DBB2002B01D00123A9
:10172400E7E0FB68784AA2FB03239B0CBB607B6861
:101734001B685B6823F03F017B681B68BA680A4337
:101744005A607B681B681B6A23F03F017B685B68F7
:101754006A4A934202D8BB68013309E0BB684FF47C
:10176400967202FB03F3694AA2FB03239B0901332C
:101774007A6812680B4313627B681B68DB6923F485
:101784004F4222F0FF027B685B685C498B4219D8A8
:10179400FB68591E7B685B685B00B1FBF3F3591C63
:1017A40040F6FC730B40002B0AD0FB68591E7B6883
:1017B4005B685B00B1FBF3F30133C3F30B0351E04C
:1017C40004234FE07B689B68002B11D1FB68581EF3
:1017D4007B6859680B465B000B44B0FBF3F30133A1
:1017E400C3F30B03002B0CBF01230023DBB212E075
:1017F400FB68581E7B6859680B469B000B44990094
:101804000B44B0FBF3F30133C3F30B03002B0CBF06
:1018140001230023DBB2002B01D0012322E07B68EB
:101824009B68002B0ED1FB68581E7B6859680B46D9
:101834005B000B44B0FBF3F30133C3F30B0343F43A
:1018440000430FE0FB68581E7B6859680B469B00F9
:101854000B4499000B44B0FBF3F30133C3F30B03C4
:1018640043F44043796809681343CB617B681B6880
:101874001B6823F0C0017B68DA697B681B6A1A4322
:101884007B681B680A431A607B681B689B6823F4A7
:10189400034323F0FF037A6811697A68D26811431D
:1018A4007A6812680B4393607B681B68DB6823F0DB
:1018B400FF017B685A697B689B691A437B681B68D4
:1018C4000A43DA607B681B681A687B681B6842F00D
:1018D40001021A607B6800221A647B68202283F864
:1018E4003D207B6800221A637B68002283F83E2037
:1018F400002318461037BD4680BD00BFA0860100F6
:101904007F841E00FF083D0083DE1B43D34D62101D
:1019140080B588B002AFF860084611461A460346FF
:101924007B810B463B811346FB80FFF723F87861EC
:10193400FB6893F83D30DBB2202B40F0D9807B6903
:101944000093192301226D49F86800F071F90346E8
:10195400002B01D00223CCE0FB6893F83C30012B30
:1019640001D10223C5E0FB68012283F83C20FB6817
:101974001B681B6803F00103012B07D0FB681B687D
:101984001A68FB681B6842F001021A60FB681B6856
:101994001A68FB681B6822F400621A60FB68212243
:1019A40083F83D20FB68402283F83E20FB68002238
:1019B4001A64FB683A6A5A62FB68BA8C5A85FB68F7
:1019C4005B8D9AB2FB681A85FB684D4ADA62F88827
:1019D4003A8979897B690193BB6A00930346F86865
:1019E40000F090F80346002B52D0012381E07A697D
:1019F400B96AF86800F036FA0346002B0DD0FB688C
:101A04001B6C042B07D1FB681B681A68FB681B68F6
:101A140042F400721A6001236BE0FB685B6A1A7877
:101A2400FB681B681A61FB685B6A5A1CFB685A6294
:101A3400FB681B8D013B9AB2FB681A85FB685B8DC2
:101A44009BB2013B9AB2FB685A85FB681B685B69D1
:101A540003F00403042B1BD1FB681B8D002B17D050
:101A6400FB685B6A1A78FB681B681A61FB685B6A2F
:101A74005A1CFB685A62FB681B8D013B9AB2FB68D7
:101A84001A85FB685B8D9BB2013B9AB2FB685A8551
:101A9400FB681B8D002BAAD17A69B96AF86800F03B
:101AA40029FA0346002B0DD0FB681B6C042B07D1CD
:101AB400FB681B681A68FB681B6842F400721A60B2
:101AC400012316E0FB681B681A68FB681B6842F474
:101AD40000721A60FB68202283F83D20FB68002214
:101AE40083F83E20FB68002283F83C20002300E0BA
:101AF400022318461837BD4680BD00BF02001000FF
:101B04000000FFFF80B588B002AFF86008461146B8
:101B14001A4603467B810B463B811346FB80FB68D8
:101B24001B681A68FB681B6842F480721A607B6A3F
:101B340000933B6A00224FF00111F86800F078F836
:101B44000346002B0DD0FB681B681B6803F48073ED
:101B5400B3F5807F03D1FB684FF400721A6403234A
:101B64005FE07B89DBB21A46FB681B6802F0FE0269
:101B74001A617B6A3A6A2D49F86800F0D3F8034683
:101B8400002B01D001234CE000237B61FB681B6820
:101B94005B697B61FB681B689B697B617B697A6A13
:101BA400396AF86800F05EF90346002B0DD0FB6833
:101BB4001B6C042B07D1FB681B681A68FB681B6845
:101BC40042F400721A6001232BE0FB88012B05D13B
:101BD4003B89DAB2FB681B681A6121E03B891B0A66
:101BE4009BB2DAB2FB681B681A617A6A396AF868D0
:101BF40000F038F90346002B0DD0FB681B6C042B56
:101C040007D1FB681B681A68FB681B6842F4007202
:101C14001A60012305E03B89DAB2FB681B681A618C
:101C2400002318461837BD4680BD00BF02000100DE
:101C340080B584B000AFF860B9603B601346FB71B7
:101C440048E03B68B3F1FF3F44D0FEF793FE024601
:101C5400BB69D31A3A689A4202D33B68002B39D144
:101C6400BB681B0CDBB2012B0DD1FB681B685B69E5
:101C7400DA43BB6813409BB2002B0CBF0123002343
:101C8400DBB21A460CE0FB681B689B69DA43BB684D
:101C940013409BB2002B0CBF01230023DBB21A4676
:101CA400FB799A4216D1FB6800221A63FB68202252
:101CB40083F83D20FB68002283F83E20FB681B6C00
:101CC40043F02002FB681A64FB68002283F83C207E
:101CD400012323E0BB681B0CDBB2012B0DD1FB6895
:101CE4001B685B69DA43BB6813409BB2002B0CBFD3
:101CF40001230023DBB21A460CE0FB681B689B69D6
:101D0400DA43BB6813409BB2002B0CBF01230023B2
:101D1400DBB21A46FB799A4293D000231846103757
:101D2400BD4680BD80B584B000AFF860B9607A600C
:101D34003B6071E0FB681B685B6903F48063B3F587
:101D4400806F23D1FB681B681A68FB681B6842F428
:101D540000721A60FB681B686FF480625A61FB684A
:101D640000221A63FB68202283F83D20FB680022CE
:101D740083F83E20FB681B6C43F00402FB681A6482
:101D8400FB68002283F83C20012367E07B68B3F101
:101D9400FF3F41D0FEF7EEFD02463B68D31A7A6856
:101DA4009A4202D37B68002B36D1BB681B0CDBB292
:101DB400012B0CD1FB681B685B69DA43BB681340D9
:101DC4009BB2002B14BF01230023DBB20BE0FB68A2
:101DD4001B689B69DA43BB6813409BB2002B14BF9A
:101DE40001230023DBB2002B16D0FB6800221A6308
:101DF400FB68202283F83D20FB68002283F83E2004
:101E0400FB681B6C43F02002FB681A64FB68002229
:101E140083F83C20012321E0BB681B0CDBB2012BBF
:101E24000CD1FB681B685B69DA43BB6813409BB247
:101E3400002B14BF01230023DBB20BE0FB681B68FB
:101E44009B69DA43BB6813409BB2002B14BF012388
:101E54000023DBB2002B7FF46DAF0023184610374C
:101E6400BD4680BD80B584B000AFF860B9607A60CB
:101E740034E0F86800F086F80346002B01D0012313
:101E840034E0BB68B3F1FF3F28D0FEF773FD024690
:101E94007B68D31ABA689A4202D3BB68002B1DD15F
:101EA400FB681B685B6903F08003802B16D0FB681A
:101EB40000221A63FB68202283F83D20FB6800227D
:101EC40083F83E20FB681B6C43F02002FB681A6415
:101ED400FB68002283F83C20012307E0FB681B68B1
:101EE4005B6903F08003802BC3D1002318461037AD
:101EF400BD4680BD80B584B000AFF860B9607A603B
:101F040034E0F86800F03EF80346002B01D00123CA
:101F140034E0BB68B3F1FF3F28D0FEF72BFD024647
:101F24007B68D31ABA689A4202D3BB68002B1DD1CE
:101F3400FB681B685B6903F00403042B16D0FB6881
:101F440000221A63FB68202283F83D20FB680022EC
:101F540083F83E20FB681B6C43F02002FB681A6484
:101F6400FB68002283F83C20012307E0FB681B6820
:101F74005B6903F00403042BC3D100231846103714
:101F8400BD4680BD80B483B000AF78607B681B68B9
:101F94005B6903F48063B3F5806F1BD17B681B68B6
:101FA4006FF480625A617B6800221A637B68202286
:101FB40083F83D207B68002283F83E207B681B6CFD
:101FC40043F004027B681A647B68002283F83C2097
:101FD400012300E0002318460C37BD4680BC70473F
:101FE40080B586B000AF78607B68002B01D10123F7
:101FF40072E27B681B6803F00103002B00F087800A
:10200400924B5B6803F00C03042B0CD08F4B5B6882
:1020140003F00C03082B12D18C4B5B6803F4803360
:10202400B3F5803F0BD1894B1B6803F40033002BBD
:102034006CD07B685B68002B68D101234CE27B6821
:102044005B68B3F5803F06D1804B1B687F4A43F43D
:10205400803313602EE07B685B68002B0CD17B4BD4
:102064001B687A4A23F480331360784B1B68774AE1
:1020740023F4802313601DE07B685B68B3F5A02F15
:102084000CD1724B1B68714A43F4802313606F4B6D
:102094001B686E4A43F4803313600BE06B4B1B6880
:1020A4006A4A23F480331360684B1B68674A23F43D
:1020B400802313607B685B68002B13D0FEF75AFC07
:1020C400386108E0FEF756FC02463B69D31A642BDC
:1020D40001D9032300E25D4B1B6803F40033002B9A
:1020E400F0D014E0FEF746FC386108E0FEF742FC4D
:1020F40002463B69D31A642B01D90323ECE1534B09
:102104001B6803F40033002BF0D100E000BF7B68B0
:102114001B6803F00203002B63D04C4B5B6803F095
:102124000C03002B0BD0494B5B6803F00C03082B0A
:102134001CD1464B5B6803F48033002B16D1434B10
:102144001B6803F00203002B05D07B681B69012B7D
:1021540001D00123C0E13D4B1B6823F0F8027B68EA
:102164005B69DB00394913430B603AE07B681B6908
:10217400002B20D0364B01221A60FEF7FBFB38619E
:1021840008E0FEF7F7FB02463B69D31A022B01D99C
:102194000323A1E12D4B1B6803F00203002BF0D0B5
:1021A4002A4B1B6823F0F8027B685B69DB00274934
:1021B40013430B6015E0264B00221A60FEF7DAFB8E
:1021C400386108E0FEF7D6FB02463B69D31A022BBE
:1021D40001D9032380E11D4B1B6803F00203002B8C
:1021E400F0D17B681B6803F00803002B3AD07B68AE
:1021F4009B69002B19D0174B01221A60FEF7BAFB1A
:10220400386108E0FEF7B6FB02463B69D31A022B9D
:1022140001D9032360E10D4B5B6A03F00203002B39
:10222400F0D0012000F0CEFA1CE00A4B00221A6024
:10223400FEF7A0FB38610FE0FEF79CFB02463B690A
:10224400D31A022B08D9032346E100BF0010024031
:102254000000424280044242924B5B6A03F0020354
:10226400002BE9D17B681B6803F00403002B00F00A
:10227400A6800023FB758B4BDB6903F08053002B96
:102284000DD1884BDB69874A43F08053D361854B7A
:10229400DB6903F08053BB60BB680123FB75824B91
:1022A4001B6803F48073002B18D17F4B1B687E4A94
:1022B40043F480731360FEF75DFB386108E0FEF7BA
:1022C40059FB02463B69D31A642B01D9032303E16A
:1022D400754B1B6803F48073002BF0D07B68DB68BC
:1022E400012B06D16F4B1B6A6E4A43F00103136244
:1022F4002DE07B68DB68002B0CD16A4B1B6A694AB2
:1023040023F001031362674B1B6A664A23F004033C
:1023140013621CE07B68DB68052B0CD1614B1B6AE4
:10232400604A43F0040313625E4B1B6A5D4A43F048
:10233400010313620BE05B4B1B6A5A4A23F001034F
:102344001362584B1B6A574A23F0040313627B68D9
:10235400DB68002B15D0FEF70DFB38610AE0FEF7B1
:1023640009FB02463B69D31A41F28832934201D9F0
:102374000323B1E04B4B1B6A03F00203002BEED0A6
:1023840014E0FEF7F7FA38610AE0FEF7F3FA0246C2
:102394003B69D31A41F28832934201D903239BE06B
:1023A400404B1B6A03F00203002BEED1FB7D012B93
:1023B40005D13C4BDB693B4A23F08053D3617B68F6
:1023C400DB69002B00F08780364B5B6803F00C035D
:1023D400082B61D07B68DB69022B46D1334B00228A
:1023E4001A60FEF7C7FA386108E0FEF7C3FA02463E
:1023F4003B69D31A022B01D903236DE0294B1B68D7
:1024040003F00073002BF0D17B681B6AB3F5803FA7
:1024140008D1244B5B6823F400327B689B68214914
:1024240013434B601F4B5B6823F474127B68196A77
:102434007B685B6A0B431B4913434B601B4B0122B4
:102444001A60FEF797FA386108E0FEF793FA02463D
:102454003B69D31A022B01D903233DE0114B1B68BE
:1024640003F00073002BF0D035E0104B00221A600B
:10247400FEF780FA386108E0FEF77CFA02463B6911
:10248400D31A022B01D9032326E0064B1B6803F061
:102494000073002BF0D11EE07B68DB69012B07D1B0
:1024A400012319E000100240007000406000424225
:1024B4000B4B5B68FB60FB6803F480327B681B6A30
:1024C4009A4206D1FB6803F470127B685B6A9A42F5
:1024D40001D0012300E0002318461837BD4680BD13
:1024E4000010024080B584B000AF786039607B682A
:1024F400002B01D10123D0E06A4B1B6803F00703D2
:102504003A689A4210D9674B1B6823F00702654961
:102514003B6813430B60634B1B6803F007033A6883
:102524009A4201D00123B8E07B681B6803F00203E0
:10253400002B20D07B681B6803F00403002B05D01C
:10254400594B5B68584A43F4E06353607B681B68EB
:1025540003F00803002B05D0534B5B68524A43F445
:1025640060535360504B5B6823F0F0027B689B68B8
:102574004D4913434B607B681B6803F00103002B38
:1025840040D07B685B68012B07D1474B1B6803F481
:102594000033002B15D101237FE07B685B68022B9D
:1025A40007D1414B1B6803F00073002B09D10123B1
:1025B40073E03D4B1B6803F00203002B01D10123A0
:1025C4006BE0394B5B6823F003027B685B68364938
:1025D40013434B60FEF7CEF9F8600AE0FEF7CAF940
:1025E4000246FB68D31A41F28832934201D903238D
:1025F40053E02D4B5B6803F00C027B685B689B0027
:102604009A42EBD1274B1B6803F007033A689A42BE
:1026140010D2244B1B6823F0070222493B68134362
:102624000B60204B1B6803F007033A689A4201D001
:10263400012332E07B681B6803F00403002B08D0FD
:10264400194B5B6823F4E0627B68DB68164913432B
:102654004B607B681B6803F00803002B09D0124B06
:102664005B6823F460527B681B69DB000E491343EB
:102674004B6000F021F802460B4B5B681B0903F02A
:102684000F030A49CB5C22FA03F3094A1360094B8E
:102694001B681846FEF72CF9002318461037BD4670
:1026A40080BD00BF0020024000100240BC39000879
:1026B400000000200400002080B487B000AF002395
:1026C400FB600023BB6000237B6100237B6000234D
:1026D4003B611E4B5B68FB60FB6803F00C03042B3F
:1026E40002D0082B03D027E0194B3B6127E0FB689D
:1026F4009B0C03F00F03174AD35C7B60FB6803F465
:102704008033002B10D0114B5B685B0C03F001038A
:10271400114AD35CBB607B680D4A03FB02F2BB68C1
:10272400B2FBF3F37B6104E07B680C4A02FB03F326
:102734007B617B693B6102E0054B3B6100BF3B6908
:1027440018461C37BD4680BC704700BF00100240CD
:1027540000127A00D4390008E439000800093D0069
:1027640080B400AF024B1B681846BD4680BC70475E
:102774000000002080B500AFFFF7F2FF0246054BD2
:102784005B681B0A03F007030349CB5C22FA03F3DB
:10279400184680BD00100240CC39000880B500AF57
:1027A400FFF7DEFF0246054B5B68DB0A03F0070315
:1027B4000349CB5C22FA03F3184680BD00100240A3
:1027C400CC39000880B485B000AF78600A4B1B6830
:1027D4000A4AA2FB03235B0A7A6802FB03F3FB6049
:1027E40000BFFB685A1EFA60002BF9D100BF00BF7E
:1027F4001437BD4680BC704700000020D34D6210E2
:1028040080B582B000AF78607B68002B01D10123D2
:1028140041E07B6893F83D30DBB2002B06D17B6846
:10282400002283F83C207868FDF734FF7B6802229D
:1028340083F83D207B681A687B6804331946104688
:1028440000F02EF87B68012283F846207B68012281
:1028540083F83E207B68012283F83F207B680122B5
:1028640083F840207B68012283F841207B680122A1
:1028740083F842207B68012283F843207B6801228D
:1028840083F844207B68012283F845207B68012279
:1028940083F83D20002318460837BD4680BD00005C
:1028A40080B485B000AF786039607B681B68FB60DA
:1028B4007B68334A934213D07B68324A93420FD0E9
:1028C4007B68B3F1804F0BD07B682F4A934207D0CB
:1028D4007B682E4A934203D07B682D4A934208D1E9
:1028E400FB6823F07003FB603B685B68FA68134382
:1028F400FB607B68224A934213D07B68214A93424F
:102904000FD07B68B3F1804F0BD07B681E4A934293
:1029140007D07B681D4A934203D07B681C4A9342CC
:1029240008D1FB6823F44073FB603B68DB68FA68FA
:102934001343FB60FB6823F080023B685B6913432D
:10294400FB607B68FA681A603B689A687B68DA62A5
:102954003B681A687B689A627B68094A934203D091
:102964007B68084A934203D13B681A697B681A63FF
:102974007B6801225A6100BF1437BD4680BC704792
:10298400002C0140003401400004004000080040D5
:10299400000C004080B485B000AF786039607B687B
:1029A40093F83C30012B01D1022350E07B680122D3
:1029B40083F83C207B68022283F83D207B681B68F7
:1029C4005B68FB607B681B689B68BB60FB6823F0EB
:1029D4007003FB603B681B68FA681343FB607B6809
:1029E4001B68FA685A607B681B681B4A934218D0BC
:1029F4007B681B68194A934213D07B681B68B3F148
:102A0400804F0ED07B681B68154A934209D07B68BF
:102A14001B68144A934204D07B681B68124A934291
:102A24000CD1BB6823F08003BB603B685B68BA6869
:102A34001343BB607B681B68BA689A607B68012299
:102A440083F83D207B68002283F83C20002318464D
:102A54001437BD4680BC7047002C0140003401404F
:102A64000004004000080040000C004080B582B023
:102A740000AF78607B68002B01D1012333E07B68D1
:102A840093F83D30DBB2002B06D17B68002283F83B
:102A94003C207868FDF748FE7B68022283F83D20DD
:102AA400786800F05BFB7B681B681A697B681B68AD
:102AB40022F480421A617B681B685A697B681B6830
:102AC40022F02A025A617B681B68DA687B681B68FB
:102AD40042F40052DA607B6800221A647B680122A7
:102AE40083F83D20002318460837BD4680BD00000A
:102AF40080B588B000AF78607B681B681B68FB6199
:102B04007B681B68DB68BB617B681B685B697B61F6
:102B140000233B610023FB60FB6903F00F033B616F
:102B24003B69002B17D1FB6903F02003002B12D063
:102B3400BB6903F02003002B0DD07B6893F83D3074
:102B4400DBB2222B03D1786800F0B4F9E9E07868AD
:102B540000F036FAE5E03B69002B00F0BB807B69AE
:102B640003F00103002B05D1BB6903F49073002B20
:102B740000F0B080FB6903F00103002B0AD0BB69AD
:102B840003F48073002B05D07B681B6C43F00102B7
:102B94007B681A64FB6903F00403002B0AD07B6989
:102BA40003F00103002B05D07B681B6C43F0020289
:102BB4007B681A64FB6903F00203002B0AD07B696B
:102BC40003F00103002B05D07B681B6C43F0040267
:102BD4007B681A64FB6903F00803002B0FD0BB6900
:102BE40003F02003002B04D17B6903F00103002BC5
:102BF40005D07B681B6C43F008027B681A647B6811
:102C04001B6C002B00F08C80FB6903F02003002B6D
:102C140011D0BB6903F02003002B0CD07B6893F820
:102C24003D30DBB2222B03D1786800F043F902E097
:102C3400786800F0C5F97B681B685B6903F04003A2
:102C4400002B14BF01230023DBB2FB607B681B6CE9
:102C540003F00803002B02D1FB68002B31D0786805
:102C640000F088F87B681B685B6903F04003002B65
:102C740023D07B681B685A697B681B6822F040027A
:102C84005A617B689B6B002B13D07B689B6B264A35
:102C94005A637B689B6B1846FEF71EF80346002BAD
:102CA40016D07B689B6B5B6B7A68926B1046984777
:102CB4000EE0786800F055F80AE0786800F051F802
:102CC40006E0786800F04DF87B6800221A6427E07B
:102CD40000BF25E0FB6903F08003002B12D0BB6921
:102CE40003F08003002B0DD07B6893F83D30DBB2FA
:102CF400122B03D1786800F06EF812E0786800F0C7
:102D04005FF90EE0FB6903F04003002B09D0BB69B7
:102D140003F04003002B04D0786800F0ABF800E027
:102D240000BF2037BD4680BDB32D000880B483B0FA
:102D340000AF786000BF0C37BD4680BC704780B4DC
:102D440083B000AF786000BF0C37BD4680BC7047CD
:102D540080B483B000AF786000BF0C37BD4680BC40
:102D6400704780B483B000AF786000BF0C37BD46B5
:102D740080BC704780B483B000AF78607B681B6808
:102D8400DA687B681B6822F49072DA607B681B68DF
:102D94005A697B681B6822F001025A617B68012230
:102DA40083F83D2000BF0C37BD4680BC704780B51A
:102DB40084B000AF78607B685B6AFB60FB680022CC
:102DC4005A86FB6800225A85F868FFF7CAFF00BFDD
:102DD4001037BD4680BD80B485B000AF78607B6895
:102DE40093F83D30DBB2122B3ED17B689B68B3F580
:102DF400805F14D17B681B69002B10D17B685B6AF0
:102E0400FB60FB681B881A467B681B68C2F30802D8
:102E14005A607B685B6A9A1C7B685A6208E07B682C
:102E24005B6A591C7A6851621A787B681B685A601D
:102E34007B685B8D9BB2013B9BB27A6819465185D6
:102E4400002B0FD17B681B68DA687B681B6822F053
:102E54008002DA607B681B68DA687B681B6842F072
:102E64004002DA60002300E0022318461437BD460E
:102E740080BC704780B582B000AF78607B681B6807
:102E8400DA687B681B6822F04002DA607B681B68A2
:102E94005A697B681B6822F001025A617B6801222F
:102EA40083F83D207868FFF741FF00231846083770
:102EB400BD4680BD80B584B000AF78607B6893F870
:102EC4003D30DBB2222B76D17B689B68B3F5805F03
:102ED40017D17B681B69002B13D10023FB607B682F
:102EE400DB6ABB607B681B685B689BB2C3F3080347
:102EF4009AB2BB681A807B68DB6A9A1C7B68DA62C8
:102F040026E07B68DB6AFB600023BB607B689B6810
:102F1400B3F5805F07D07B689B68002B0AD17B6880
:102F24001B69002B06D17B681B685B68DAB2FB68FF
:102F34001A7008E07B681B685B68DBB203F07F03F0
:102F4400DAB2FB681A707B68DB6A5A1C7B68DA6247
:102F54007B685B8E9BB2013B9AB27B685A867B6826
:102F64005B8E9BB2002B20D17B681B68DA687B6880
:102F74001B6822F02002DA607B681B68DA687B68D1
:102F84001B6822F48072DA607B681B685A697B686C
:102F94001B6822F001025A617B68012283F83D20FC
:102FA4007868FFF7CCFE002306E07B681B68FF22ED
:102FB4005A60002300E0022318461037BD4680BD46
:102FC40080B584B000AF78607B6893F83D30DBB2A5
:102FD400322B40F0BD807B685B8D9BB2002B3DD0D3
:102FE4007B681B681B6803F08003802B36D17B68E9
:102FF4009B68B3F5805F14D17B681B69002B10D1EB
:103004007B685B6AFB60FB681B881A467B681B68ED
:10301400C2F308025A607B685B6A9A1C7B685A6236
:1030240008E07B685B6A591C7A6851621A787B688D
:103034001B685A607B685B8D9BB2013B9AB27B68CC
:103044005A857B685B8D9BB2002B07D17B681B681C
:10305400DA687B681B6822F08002DA607B685B8E2A
:103064009BB2002B4CD07B681B681B6803F02003C9
:10307400202B45D17B689B68B3F5805F15D17B68B5
:103084001B69002B11D17B68DB6ABB607B681B6802
:103094005B689BB2C3F308039AB2BB681A807B686F
:1030A400DB6A9A1C7B68DA6223E07B689B68B3F571
:1030B400805F07D07B689B68002B0BD17B681B6902
:1030C400002B07D17B681B685A687B68DB6AD2B225
:1030D4001A7009E07B681B685B68DAB27B68DB6A9C
:1030E40002F07F02D2B21A707B68DB6A5A1C7B68DA
:1030F400DA627B685B8E9BB2013B9AB27B685A862C
:103104007B685B8E9BB2002B20D17B681B68DA68DE
:103114007B681B6822F02002DA607B681B68DA682F
:103124007B681B6822F48072DA607B681B685A69CA
:103134007B681B6822F001025A617B68012283F8D4
:103144003D207868FFF704FE002302E0002300E03E
:10315400022318461037BD4680BD000080B584B0F8
:1031640000AF78600023FB607B681B68DA687B68CB
:103174001B6822F00C02DA607B681B681B69FB6029
:10318400FB6823F47C53FB607B689A697B68DB698A
:103194001A437B681B6A1A437B68DB681A43FB6823
:1031A400134343F40063FB607B681B68FA681A618D
:1031B4007B681B68DB68FB60FB6823F4B05323F077
:1031C4000C03FB607B689A687B681B691A437B6805
:1031D4005B691343FA681343FB607B681B68FA68F6
:1031E400DA607B681B685A697B681B6822F440724A
:1031F4005A617B681B68534A93424FD1FFF7CEFA5A
:10320400B860BA6813469B0013449A001A447B685A
:103214005B689B00B2FBF3F34B4AA2FB03235B09FD
:103224001901BA6813469B0013449A001A447B6838
:103234005B689B00B2FBF3F2434BA3FB02035B0905
:10324400642000FB03F3D31A1B0132333E4AA2FB72
:1032540003235B095B0003F4F0731944BA68134653
:103264009B0013449A001A447B685B689B00B2FB82
:10327400F3F2354BA3FB02035B09642000FB03F369
:10328400D31A1B013233304AA2FB03235B0903F038
:103294000F027B681B680A449A604EE0FFF76AFAE3
:1032A400B860BA6813469B0013449A001A447B68BA
:1032B4005B689B00B2FBF3F3234AA2FB03235B0985
:1032C4001901BA6813469B0013449A001A447B6898
:1032D4005B689B00B2FBF3F21B4BA3FB02035B098D
:1032E400642000FB03F3D31A1B013233164AA2FBFA
:1032F40003235B095B0003F4F0731944BA681346B3
:103304009B0013449A001A447B685B689B00B2FBE1
:10331400F3F20D4BA3FB02035B09642000FB03F3F0
:10332400D31A1B013233084AA2FB03235B0903F0BF
:103334000F027B681B680A449A6000BF1037BD46C1
:1033440080BD00BF003801401F85EB5180B582B0BD
:1033540000AFC820FDF718FB0023FB710023FB71AD
:1033640008E0FB79074AD35C184600F00DF8FB79B6
:103374000133FB71FB79162BF3D900BF00BF08376B
:10338400BD4680BD0C00002080B586B004AF034666
:10339400FB714FF48073029301230193FB1D00938F
:1033A4000123002278210348FEF7B2FA00BF083750
:1033B400BD4680BDC000002080B586B004AF034682
:1033C400FB714FF48073029301230193FB1D00935F
:1033D4000123402278210348FEF79AFA00BF0837F8
:1033E400BD4680BDC000002080B582B000AF002380
:1033F400FB711BE0FB79503BDBB21846FFF7C4FFBF
:103404000020FFF7C1FF1020FFF7BEFF0023BB71B0
:1034140005E00020FFF7D0FFBB790133BB7197F9BA
:103424000630002BF5DAFB790133FB71FB79072BAE
:10343400E0D900BF00BF0837BD4680BD80B582B06B
:1034440000AF03460A46FB711346BB71BB79503B80
:10345400DBB21846FFF798FFFB791B09DBB243F098
:103464001003DBB21846FFF78FFFFB7903F00F035D
:10347400DBB21846FFF788FF00BF0837BD4680BDA2
:1034840080B485B000AF03460A46FB711346BB7196
:103494000123FB6004E0FA79FB6802FB03F3FB60A1
:1034A400BB795A1EBA71002BF5D1FB681846143744
:1034B400BD4680BC7047000090B585B000AF04469F
:1034C400084611461A462346FB710346BB710B4658
:1034D4007B7113463B710023BB730023FB737B7921
:1034E400203BBB7397F90730002B04DA0023FB71F0
:1034F400BB790233BB713B79102B54D1BA79FB7978
:1035040011461846FFF79AFF0023FB731BE097F858
:103514002030002B0BD0BB7B1A01FB7B13443C4AAD
:10352400D35CDB43DBB21846FFF746FF08E0BB7B06
:103534001A01FB7B1344364AD35C1846FFF73CFF61
:10354400FB7B0133FB73FB7B072BE0D9BB79013396
:10355400DAB2FB7911461846FFF770FF0023FB73BC
:103564001DE097F82030002B0CD0BB7B1A01FB7BAD
:1035740013440833264AD35CDB43DBB21846FFF717
:103584001BFF09E0BB7B1A01FB7B13440833204A71
:10359400D35C1846FFF710FFFB7B0133FB73FB7B07
:1035A400072BDED92FE0BA79FB7911461846FFF7CD
:1035B40045FF0023FB7323E097F82030002B0FD046
:1035C400BA7BF97B134813465B0013445B00034446
:1035D4000B441B78DB43DBB21846FFF7EDFE0CE02F
:1035E400BA7BF97B0B4813465B0013445B0003442E
:1035F4000B441B781846FFF7DFFEFB7B0133FB739C
:10360400FB7B052BD8D900BF1437BD4690BD00BF46
:10361400103C0008E839000890B587B002AF3A6062
:103624001A460346FB710B46BB7113467B7100239C
:10363400FB732FE0FB7B3A6813441A787C79B979E1
:10364400F87997F8203000932346FFF735FF7B790C
:103654000C2B03D1FB790633FB7102E0FB790833B1
:10366400FB71FB797A2B07D97B790C2B04D10023CE
:10367400FB71BB790133BB71FB79782B07D97B795B
:10368400102B04D10023FB71BB790133BB71FB7B8D
:103694000133FB73FB7B3A6813441B78002BC9D1BD
:1036A40000BF00BF1437BD4690BD000090B587B081
:1036B40002AF3A601A460346FB710B46BB711346D0
:1036C4007B710023BB730023FB7355E07A79FB7B8A
:1036D400D31ADBB2013BDBB219460A20FFF7D0FE56
:1036E40002463B68B3FBF2F1284BA3FB0123DA0843
:1036F40013469B0013445B00CA1A13467B73BB7BBF
:10370400002B1FD1FA7B7B79013B9A421ADA7B7B2F
:10371400002B15D197F820305B08DBB2FA7B02FB53
:1037240003F3DAB2FB791344D8B297F82020B979BD
:1037340097F82430009313462022FFF7BDFE18E0CB
:103744000123BB7397F820305B08DBB2FA7B02FBE2
:1037540003F3DAB2FB791344D8B27B7B3033DAB2A9
:1037640097F82040B97997F8243000932346FFF75F
:10377400A3FEFB7B0133FB73FA7B7B799A42A5D3CF
:1037840000BF00BF1437BD4690BD00BFCDCCCCCC2C
:1037940090B585B000AF0446084611461A46234644
:1037A400FB710346BB710B467B7113463B710023CF
:1037B400FB73BA79FB7911461846FFF73FFE0023E5
:1037C400FB731EE03B79002B0DD07B795A00FB7B09
:1037D400274912010A4413441B78DB43DBB2184621
:1037E400FFF7EAFD0AE07B795A00FB7B20491201CE
:1037F4000A4413441B781846FFF7DEFDFB7B0133B4
:10380400FB73FB7B0F2BDDD9BB790133DAB2FB7978
:1038140011461846FFF712FE0023FB7320E03B79A4
:10382400002B0ED07B795B005A1CFB7B10491201E4
:103834000A4413441B78DB43DBB21846FFF7BCFD94
:103844000BE07B795B005A1CFB7B094912010A449B
:1038540013441B781846FFF7AFFDFB7B0133FB7362
:10386400FB7B0F2BDBD900BF00BF1437BD4690BDD7
:10387400F041000890B585B000AF044608461146F3
:103884001A462346FB710346BB710B467B711346F4
:103894003B710023FB600023FB720023BB723B7966
:1038A40003F00703DBB2002B03D13B79DB08BB72C7
:1038B40004E03B79DB08DBB20133BB72BB79BB723A
:1038C4002BE0BA7AFB7911461846FFF7B7FDFB796E
:1038D400FB721BE097F82430002B0BD0FB685A1CBA
:1038E400FA603A6A13441B78DB43DBB21846FFF7ED
:1038F40063FD08E0FB685A1CFA603A6A13441B78BB
:103904001846FFF759FDFB7A0133FB72FA7A7B798B
:103914009A42DFD3BB7A0133BB72BA7A3B799A42BB
:10392400CFD300BF00BF1437BD4690BD0346024449
:10393400934200D1704703F8011BF9E770B50026E4
:103944000C4D0D4C641BA410A64209D100F01AF8CA
:1039540000260A4D0A4C641BA410A64205D170BD72
:1039640055F8043B98470136EEE755F8043B984771
:103974000136F2E750420008504200085042000865
:1039840054420008F8B500BFF8BC08BC9E46704716
:0C399400F8B500BFF8BC08BC9E467047A8
:1039A000554E49434F524E5F4C490000756E696356
:1039B0006F726E5F6C695F3132330000000000008F
:1039C00000000000010203040607080900000000CF
:1039D0000102030402030405060708090A0B0C0D83
:1039E0000E0F101001020000000000000000000097
:1039F000002F000000000700070000147F147F1450
:103A000000242A7F2A1200626408132300364955D5
:103A1000225000000503000000001C2241000000AD
:103A200041221C000014083E08140008083E080843
:103A3000000000A06000000808080808000060609E
:103A40000000002010080402003E5149453E0000DD
:103A5000427F4000004261514946002141454B31BF
:103A6000001814127F10002745454539003C4A498B
:103A700049300001710905030036494949360006FD
:103A80004949291E00003636000000005636000065
:103A900000081422410000141414141400004122E0
:103AA000140800020151090600324959513E007CB8
:103AB0001211127C007F49494936003E41414122A2
:103AC000007F4141221C007F49494941007F09098B
:103AD0000901003E4149497A007F0808087F00003B
:103AE000417F4100002040413F01007F08142241F6
:103AF000007F40404040007F020C027F007F0408AE
:103B0000107F003E4141413E007F09090906003E09
:103B10004151215E007F0919294600464949493132
:103B20000001017F0101003F4040403F001F204055
:103B3000201F003F4038403F006314081463000713
:103B40000870080700615149454300007F4141006A
:103B500000552A552A55000041417F00000402010A
:103B600002040040404040400000010204000020E8
:103B700054545478007F4844443800384444442026
:103B800000384444487F00385454541800087E09D3
:103B900001020018A4A4A47C007F0804047800009B
:103BA000447D4000004080847D00007F1028440058
:103BB0000000417F4000007C04180478007C080469
:103BC000047800384444443800FC242424180018A5
:103BD000242418FC007C0804040800485454542091
:103BE00000043F444020003C4040207C001C20401A
:103BF000201C003C4030403C004428102844001C5D
:103C0000A0A0A07C004464544C4414141414141454
:103C100000000000000000000000000000000000A4
:103C2000000000F800000000000000333000000039
:103C300000100C06100C0600000000000000000040
:103C400040C07840C0784000043F04043F040400B2
:103C5000007088FC08300000001820FF211E0000C2
:103C6000F008F000E018000000211C031E211E00D7
:103C700000F00888700000001E212324192721105D
:103C800010160E0000000000000000000000000000
:103C9000000000E0180402000000000718204000A7
:103CA00000020418E0000000004020180700000097
:103CB000404080F0804040000202010F01020200FB
:103CC000000000F0000000000101011F01010100DF
:103CD000000000000000000080B070000000000044
:103CE00000000000000000000001010101010101CD
:103CF0000000000000000000003030000000000064
:103D00000000000080601804006018060100000038
:103D100000E010080810E000000F102020100F0035
:103D2000001010F8000000000020203F20200000BC
:103D30000070080808887000003028242221300014
:103D400000300888884830000018202020110E001C
:103D50000000C02010F8000000070424243F2400C5
:103D600000F80888880808000019212020110E009A
:103D700000E0108888180000000F112020110E00AC
:103D800000380808C83808000000003F00000000A4
:103D90000070880808887000001C222121221C0065
:103DA00000E010080810E0000000312222110F008E
:103DB000000000C0C0000000000000303000000023
:103DC0000000008000000000000080600000000093
:103DD00000008040201008000001020408102000AC
:103DE00040404040404040000404040404040400F7
:103DF000000810204080000000201008040201008C
:103E0000007048080808F00000000030360100008B
:103E1000C030C828E810E0000718272423140B003E
:103E20000000C038E0000000203C230202273820B8
:103E300008F8888888700000203F202020110E009C
:103E4000C030080808083800071820202010080093
:103E500008F808080810E000203F202020100F007C
:103E600008F88888E8081000203F20202320180048
:103E700008F88888E8081000203F200003000000B0
:103E8000C03008080838000007182020221E020051
:103E900008F808000008F808203F210101213F2010
:103EA000000808F8080800000020203F202000003B
:103EB00000000808F8080800C08080807F0000002B
:103EC00008F888C028180800203F20012638200064
:103ED00008F8080000000000203F202020203000CB
:103EE00008F8F800F8F80800203F003F003F2000E5
:103EF00008F830C00008F808203F200007183F00ED
:103F0000E01008080810E0000F10202020100F001B
:103F100008F808080808F000203F2101010100000E
:103F2000E01008080810E0000F18242438504F0053
:103F300008F8888888887000203F2000030C302013
:103F400000708808080838000038202121221C0051
:103F5000180808F8080818000000203F200000009A
:103F600008F808000008F808001F202020201F0083
:103F70000878880000C83808000007380E010000E3
:103F8000F80800F80008F800033C0700073C0300AD
:103F9000081868808068180820302C03032C302013
:103FA0000838C800C83808000000203F2000000082
:103FB00010080808C83808002038262120201800DA
:103FC000000000FE020202000000007F40404000AE
:103FD000000C30C000000000000000010638C000E6
:103FE00000020202FE000000004040407F0000008E
:103FF00000000402020204000000000000000000B3
:1040000000000000000000008080808080808080B0
:104010000002020400000000000000000000000098
:1040200000008080808000000019242222223F208E
:1040300008F8008080000000003F112020110E00D1
:104040000000008080800000000E11202020110060
:10405000000000808088F800000E112020103F2012
:104060000000808080800000001F22222222130096
:10407000008080F0888888180020203F20200000E1
:104080000000808080808000006B94949493600096
:1040900008F8008080800000203F210000203F20A1
:1040A00000809898000000000020203F20200000A1
:1040B000000000809898000000C08080807F000091
:1040C00008F8000080808000203F24022D3020006E
:1040D000000808F8000000000020203F2020000019
:1040E0008080808080808000203F20003F20003F33
:1040F0008080008080800000203F210000203F2041
:104100000000808080800000001F202020201F00F1
:10411000808000808000000080FFA12020110E0020
:104120000000008080808000000E112020A0FF8011
:10413000808080008080800020203F2120000100BE
:104140000000808080808000003324242424190013
:10415000008080E0808000000000001F2020000020
:104160008080000000808000001F202020103F2061
:10417000808080000080808000010E3008060100F1
:1041800080800080008080800F300C030C300F0096
:1041900000808000808080000020312E0E312000C1
:1041A000808080000080808080818E7018060100F1
:1041B00000808080808080000021302C222130000F
:1041C00000000000807C020200000000003F404030
:1041D0000002027C800000000040403F0000000020
:1041E00000000000FF00000000000000FF000000D1
:1041F00040221408F40200F80808FF0808F800003C
:10420000084482413F00206321213F21293360007F
:104210002010E824272424E424342C20E00000008B
:1042200080601F090909097F090949897F00000089
:1042300000007C545556547C545655547C00000064
:10424000010101FD45454545454545FD010101008B
:044250000902000857
:04425400E501000878
:104258000024F4001000000001000000AED580A882
:104268003FD30040A1C8DA1281CFD9F1DB40A4A620
:104278008D14AF00000000000000000000808000E6
:1042880040E0E06000408000000080806060100036
:1042980000000000000000000090B2666EECC983C8
:1042A80002004080000C0C0103070F112040800021
:1042B800000000000000000008183B3766EEEECC56
:1042C80088800000010204081010101010100F0060
:1042D80000000000003E4040403E007E0408107E82
:1042E800007E003C42424242007E4242427E007EC4
:0442F8000408107E28
:040000050800087D6A
:00000001FF
